{
  "abi": [
    {
      "type": "constructor",
      "inputs": [
        {
          "name": "_router",
          "type": "address",
          "internalType": "address"
        }
      ],
      "stateMutability": "nonpayable"
    },
    {
      "type": "function",
      "name": "chainIdTochainSelectorMapping",
      "inputs": [
        {
          "name": "",
          "type": "uint256",
          "internalType": "uint256"
        }
      ],
      "outputs": [
        {
          "name": "",
          "type": "uint64",
          "internalType": "uint64"
        }
      ],
      "stateMutability": "view"
    },
    {
      "type": "function",
      "name": "eip712Domain",
      "inputs": [],
      "outputs": [
        {
          "name": "fields",
          "type": "bytes1",
          "internalType": "bytes1"
        },
        {
          "name": "name",
          "type": "string",
          "internalType": "string"
        },
        {
          "name": "version",
          "type": "string",
          "internalType": "string"
        },
        {
          "name": "chainId",
          "type": "uint256",
          "internalType": "uint256"
        },
        {
          "name": "verifyingContract",
          "type": "address",
          "internalType": "address"
        },
        {
          "name": "salt",
          "type": "bytes32",
          "internalType": "bytes32"
        },
        {
          "name": "extensions",
          "type": "uint256[]",
          "internalType": "uint256[]"
        }
      ],
      "stateMutability": "view"
    },
    {
      "type": "function",
      "name": "getEstimatedFees",
      "inputs": [
        {
          "name": "__destinationChainSelector",
          "type": "uint64",
          "internalType": "uint64"
        },
        {
          "name": "_receiver",
          "type": "address",
          "internalType": "address"
        },
        {
          "name": "_token",
          "type": "address",
          "internalType": "address"
        },
        {
          "name": "_amount",
          "type": "uint256",
          "internalType": "uint256"
        }
      ],
      "outputs": [
        {
          "name": "",
          "type": "uint256",
          "internalType": "uint256"
        }
      ],
      "stateMutability": "view"
    },
    {
      "type": "function",
      "name": "owner",
      "inputs": [],
      "outputs": [
        {
          "name": "",
          "type": "address",
          "internalType": "address"
        }
      ],
      "stateMutability": "view"
    },
    {
      "type": "function",
      "name": "renounceOwnership",
      "inputs": [],
      "outputs": [],
      "stateMutability": "nonpayable"
    },
    {
      "type": "function",
      "name": "setChainSelector",
      "inputs": [
        {
          "name": "_chainSelector",
          "type": "uint64",
          "internalType": "uint64"
        },
        {
          "name": "_chainId",
          "type": "uint256",
          "internalType": "uint256"
        }
      ],
      "outputs": [],
      "stateMutability": "nonpayable"
    },
    {
      "type": "function",
      "name": "transferFromWithPermit",
      "inputs": [
        {
          "name": "senderSign",
          "type": "bytes",
          "internalType": "bytes"
        },
        {
          "name": "receiverSign",
          "type": "bytes",
          "internalType": "bytes"
        },
        {
          "name": "deadline",
          "type": "uint256",
          "internalType": "uint256"
        },
        {
          "name": "_transaction",
          "type": "tuple",
          "internalType": "struct DualSign.Transaction",
          "components": [
            {
              "name": "sender",
              "type": "address",
              "internalType": "address"
            },
            {
              "name": "receiver",
              "type": "address",
              "internalType": "address"
            },
            {
              "name": "amount",
              "type": "uint256",
              "internalType": "uint256"
            },
            {
              "name": "tokenAddress",
              "type": "address",
              "internalType": "address"
            },
            {
              "name": "tokenName",
              "type": "string",
              "internalType": "string"
            },
            {
              "name": "chainId",
              "type": "uint256",
              "internalType": "uint256"
            },
            {
              "name": "secretPin",
              "type": "uint256",
              "internalType": "uint256"
            }
          ]
        },
        {
          "name": "v",
          "type": "uint8",
          "internalType": "uint8"
        },
        {
          "name": "r",
          "type": "bytes32",
          "internalType": "bytes32"
        },
        {
          "name": "s",
          "type": "bytes32",
          "internalType": "bytes32"
        }
      ],
      "outputs": [],
      "stateMutability": "nonpayable"
    },
    {
      "type": "function",
      "name": "transferNative",
      "inputs": [
        {
          "name": "senderSign",
          "type": "bytes",
          "internalType": "bytes"
        },
        {
          "name": "receiverSign",
          "type": "bytes",
          "internalType": "bytes"
        },
        {
          "name": "_transaction",
          "type": "tuple",
          "internalType": "struct DualSign.Transaction",
          "components": [
            {
              "name": "sender",
              "type": "address",
              "internalType": "address"
            },
            {
              "name": "receiver",
              "type": "address",
              "internalType": "address"
            },
            {
              "name": "amount",
              "type": "uint256",
              "internalType": "uint256"
            },
            {
              "name": "tokenAddress",
              "type": "address",
              "internalType": "address"
            },
            {
              "name": "tokenName",
              "type": "string",
              "internalType": "string"
            },
            {
              "name": "chainId",
              "type": "uint256",
              "internalType": "uint256"
            },
            {
              "name": "secretPin",
              "type": "uint256",
              "internalType": "uint256"
            }
          ]
        }
      ],
      "outputs": [],
      "stateMutability": "payable"
    },
    {
      "type": "function",
      "name": "transferOwnership",
      "inputs": [
        {
          "name": "newOwner",
          "type": "address",
          "internalType": "address"
        }
      ],
      "outputs": [],
      "stateMutability": "nonpayable"
    },
    {
      "type": "function",
      "name": "transferTokens",
      "inputs": [
        {
          "name": "senderSign",
          "type": "bytes",
          "internalType": "bytes"
        },
        {
          "name": "receiverSign",
          "type": "bytes",
          "internalType": "bytes"
        },
        {
          "name": "_transaction",
          "type": "tuple",
          "internalType": "struct DualSign.Transaction",
          "components": [
            {
              "name": "sender",
              "type": "address",
              "internalType": "address"
            },
            {
              "name": "receiver",
              "type": "address",
              "internalType": "address"
            },
            {
              "name": "amount",
              "type": "uint256",
              "internalType": "uint256"
            },
            {
              "name": "tokenAddress",
              "type": "address",
              "internalType": "address"
            },
            {
              "name": "tokenName",
              "type": "string",
              "internalType": "string"
            },
            {
              "name": "chainId",
              "type": "uint256",
              "internalType": "uint256"
            },
            {
              "name": "secretPin",
              "type": "uint256",
              "internalType": "uint256"
            }
          ]
        }
      ],
      "outputs": [],
      "stateMutability": "nonpayable"
    },
    {
      "type": "event",
      "name": "EIP712DomainChanged",
      "inputs": [],
      "anonymous": false
    },
    {
      "type": "event",
      "name": "OwnershipTransferred",
      "inputs": [
        {
          "name": "previousOwner",
          "type": "address",
          "indexed": true,
          "internalType": "address"
        },
        {
          "name": "newOwner",
          "type": "address",
          "indexed": true,
          "internalType": "address"
        }
      ],
      "anonymous": false
    },
    {
      "type": "event",
      "name": "TokensTransferred",
      "inputs": [
        {
          "name": "messageId",
          "type": "bytes32",
          "indexed": true,
          "internalType": "bytes32"
        },
        {
          "name": "destinationChainSelector",
          "type": "uint64",
          "indexed": true,
          "internalType": "uint64"
        },
        {
          "name": "receiver",
          "type": "address",
          "indexed": false,
          "internalType": "address"
        },
        {
          "name": "token",
          "type": "address",
          "indexed": false,
          "internalType": "address"
        },
        {
          "name": "tokenAmount",
          "type": "uint256",
          "indexed": false,
          "internalType": "uint256"
        },
        {
          "name": "feeToken",
          "type": "address",
          "indexed": false,
          "internalType": "address"
        },
        {
          "name": "fees",
          "type": "uint256",
          "indexed": false,
          "internalType": "uint256"
        }
      ],
      "anonymous": false
    },
    {
      "type": "error",
      "name": "ECDSAInvalidSignature",
      "inputs": []
    },
    {
      "type": "error",
      "name": "ECDSAInvalidSignatureLength",
      "inputs": [
        {
          "name": "length",
          "type": "uint256",
          "internalType": "uint256"
        }
      ]
    },
    {
      "type": "error",
      "name": "ECDSAInvalidSignatureS",
      "inputs": [
        {
          "name": "s",
          "type": "bytes32",
          "internalType": "bytes32"
        }
      ]
    },
    {
      "type": "error",
      "name": "InvalidShortString",
      "inputs": []
    },
    {
      "type": "error",
      "name": "NotEnoughBalance",
      "inputs": [
        {
          "name": "currentBalance",
          "type": "uint256",
          "internalType": "uint256"
        },
        {
          "name": "calculatedFees",
          "type": "uint256",
          "internalType": "uint256"
        }
      ]
    },
    {
      "type": "error",
      "name": "OwnableInvalidOwner",
      "inputs": [
        {
          "name": "owner",
          "type": "address",
          "internalType": "address"
        }
      ]
    },
    {
      "type": "error",
      "name": "OwnableUnauthorizedAccount",
      "inputs": [
        {
          "name": "account",
          "type": "address",
          "internalType": "address"
        }
      ]
    },
    {
      "type": "error",
      "name": "StringTooLong",
      "inputs": [
        {
          "name": "str",
          "type": "string",
          "internalType": "string"
        }
      ]
    }
  ],
  "bytecode": {
    "object": "0x6101606040527fa966469858f2c7f8b4d7c440f59a38e0989e3971c121a2aa64d1b3d5eb604c5c6004557f6f0116134a30e8b2ea6fe1ae6ca865937c96f03f0e7acee68a4ad97ff61f273960055534801561005957600080fd5b5060405161203538038061203583398101604081905261007891610282565b6040805180820182526008815267223ab0b629b4b3b760c11b602080830191909152825180840190935260018352603160f81b9083015233916100bc8260006101bf565b610120526100cb8160016101bf565b61014052815160208084019190912060e052815190820120610100524660a05261015860e05161010051604080517f8b73c3c69bb8fe3d512ecc4cf759cc79239f7b179b0ffacaa9a75d522b39400f60208201529081019290925260608201524660808201523060a082015260009060c00160405160208183030381529060405280519060200120905090565b60805250503060c0526001600160a01b03811661019057604051631e4fbdf760e01b8152600060048201526024015b60405180910390fd5b610199816101f2565b50600380546001600160a01b0319166001600160a01b0392909216919091179055610481565b60006020835110156101db576101d483610244565b90506101ec565b816101e68482610351565b5060ff90505b92915050565b600280546001600160a01b038381166001600160a01b0319831681179093556040519116919082907f8be0079c531659141344cd1fd0a4f28419497f9722a3daafe3b4186f6b6457e090600090a35050565b600080829050601f8151111561026f578260405163305a27a960e01b8152600401610187919061040f565b805161027a8261045d565b179392505050565b60006020828403121561029457600080fd5b81516001600160a01b03811681146102ab57600080fd5b9392505050565b634e487b7160e01b600052604160045260246000fd5b600181811c908216806102dc57607f821691505b6020821081036102fc57634e487b7160e01b600052602260045260246000fd5b50919050565b601f82111561034c57806000526020600020601f840160051c810160208510156103295750805b601f840160051c820191505b818110156103495760008155600101610335565b50505b505050565b81516001600160401b0381111561036a5761036a6102b2565b61037e8161037884546102c8565b84610302565b6020601f8211600181146103b2576000831561039a5750848201515b600019600385901b1c1916600184901b178455610349565b600084815260208120601f198516915b828110156103e257878501518255602094850194600190920191016103c2565b50848210156104005786840151600019600387901b60f8161c191681555b50505050600190811b01905550565b602081526000825180602084015260005b8181101561043d5760208186018101516040868401015201610420565b506000604082850101526040601f19601f83011684010191505092915050565b805160208083015191908110156102fc5760001960209190910360031b1b16919050565b60805160a05160c05160e051610100516101205161014051611b5a6104db6000396000610d3601526000610d040152600061114f0152600061112701526000611082015260006110ac015260006110d60152611b5a6000f3fe6080604052600436106100915760003560e01c80638a174449116100595780638a1744491461013b5780638da5cb5b1461015b578063e2fa2b6f14610183578063f2fde38b146101a3578063f4c5f43e146101c357600080fd5b80635a2d55a11461009657806362e10d6b146100b8578063715018a6146100cb57806371a344af146100e057806384b0196e14610113575b600080fd5b3480156100a257600080fd5b506100b66100b1366004611568565b610211565b005b6100b66100c6366004611630565b610481565b3480156100d757600080fd5b506100b66105bf565b3480156100ec57600080fd5b506101006100fb3660046116d8565b6105d3565b6040519081526020015b60405180910390f35b34801561011f57600080fd5b50610128610664565b60405161010a9796959493929190611769565b34801561014757600080fd5b506100b6610156366004611801565b6106aa565b34801561016757600080fd5b506002546040516001600160a01b03909116815260200161010a565b34801561018f57600080fd5b506100b661019e366004611630565b6106e1565b3480156101af57600080fd5b506100b66101be36600461182b565b610982565b3480156101cf57600080fd5b506101f96101de36600461184d565b6006602052600090815260409020546001600160401b031681565b6040516001600160401b03909116815260200161010a565b600084604001511161023e5760405162461bcd60e51b815260040161023590611866565b60405180910390fd5b60208401516001600160a01b03166102685760405162461bcd60e51b81526004016102359061189d565b83516001600160a01b031661028f5760405162461bcd60e51b8152600401610235906118d4565b600061029b88866109c0565b905060006102a98887610a84565b905085600001516001600160a01b0316826001600160a01b0316146102e05760405162461bcd60e51b815260040161023590611904565b85602001516001600160a01b0316816001600160a01b0316146103155760405162461bcd60e51b81526004016102359061193b565b60608601518651604080890151905163d505accf60e01b81526001600160a01b0392831660048201523060248201526044810191909152606481018a905260ff8816608482015260a4810187905260c48101869052829182169063d505accf9060e401600060405180830381600087803b15801561039257600080fd5b505af11580156103a6573d6000803e3d6000fd5b5050895160208b01516040808d015190516323b872dd60e01b81526001600160a01b0393841660048201529183166024830152604482015290841692506323b872dd91506064016020604051808303816000875af115801561040c573d6000803e3d6000fd5b505050506040513d601f19601f820116820180604052508101906104309190611972565b6104745760405162461bcd60e51b8152602060048201526015602482015274151bdad95b881d1c985b9cd9995c8819985a5b1959605a1b6044820152606401610235565b5050505050505050505050565b60008160400151116104a55760405162461bcd60e51b815260040161023590611866565b60208101516001600160a01b03166104cf5760405162461bcd60e51b81526004016102359061189d565b80516001600160a01b03166104f65760405162461bcd60e51b8152600401610235906118d4565b600061050284836109c0565b905060006105108484610a84565b905082600001516001600160a01b0316826001600160a01b0316146105475760405162461bcd60e51b815260040161023590611904565b82602001516001600160a01b0316816001600160a01b03161461057c5760405162461bcd60e51b81526004016102359061193b565b60208301516040516001600160a01b03909116903480156108fc02916000818181858888f193505050501580156105b7573d6000803e3d6000fd5b505050505050565b6105c7610b0e565b6105d16000610b3b565b565b6000806105e38585856000610b8d565b6003546040516320487ded60e01b81529192506001600160a01b03169081906320487ded90610618908a908690600401611994565b602060405180830381865afa158015610635573d6000803e3d6000fd5b505050506040513d601f19601f820116820180604052508101906106599190611a69565b979650505050505050565b600060608060008060006060610678610cfd565b610680610d2f565b60408051600080825260208201909252600f60f81b9b939a50919850469750309650945092509050565b6106b2610b0e565b6000908152600660205260409020805467ffffffffffffffff19166001600160401b0392909216919091179055565b60008160400151116107055760405162461bcd60e51b815260040161023590611866565b60208101516001600160a01b031661072f5760405162461bcd60e51b81526004016102359061189d565b80516001600160a01b03166107565760405162461bcd60e51b8152600401610235906118d4565b600061076284836109c0565b905060006107708484610a84565b905082600001516001600160a01b0316826001600160a01b0316146107a75760405162461bcd60e51b815260040161023590611904565b82602001516001600160a01b0316816001600160a01b0316146107dc5760405162461bcd60e51b81526004016102359061193b565b606083015160a084015146146108bb578351602085015160408087015190516323b872dd60e01b81526001600160a01b03938416600482015291831660248301526044820152908216906323b872dd906064016020604051808303816000875af115801561084e573d6000803e3d6000fd5b505050506040513d601f19601f820116820180604052508101906108729190611972565b6108b65760405162461bcd60e51b8152602060048201526015602482015274151bdad95b881d1c985b9cd9995c8819985a5b1959605a1b6044820152606401610235565b6105b7565b835160408086015190516323b872dd60e01b81526001600160a01b0392831660048201523060248201526044810191909152908216906323b872dd906064016020604051808303816000875af1158015610919573d6000803e3d6000fd5b505050506040513d601f19601f8201168201806040525081019061093d9190611972565b5060a08401516000908152600660209081526040918290205490860151606087015192870151610979936001600160401b039093169290610d5c565b50505050505050565b61098a610b0e565b6001600160a01b0381166109b457604051631e4fbdf760e01b815260006004820152602401610235565b6109bd81610b3b565b50565b6000808260400151116109e55760405162461bcd60e51b815260040161023590611866565b81516001600160a01b0316610a0c5760405162461bcd60e51b81526004016102359061189d565b6004548251602080850151604080870151608088015180519085012060a089015160c08a01519351600098610a479890979096959101611a82565b6040516020818303038152906040528051906020012090506000610a6a82610f73565b90506000610a788287610fa0565b93505050505b92915050565b600080826040015111610aa95760405162461bcd60e51b815260040161023590611866565b60208201516001600160a01b0316610ad35760405162461bcd60e51b81526004016102359061189d565b6005548251602080850151604080870151608088015180519085012060a089015160c08a01519351600098610a479890979096959101611a82565b6002546001600160a01b031633146105d15760405163118cdaa760e01b8152336004820152602401610235565b600280546001600160a01b038381166001600160a01b0319831681179093556040519116919082907f8be0079c531659141344cd1fd0a4f28419497f9722a3daafe3b4186f6b6457e090600090a35050565b610bc86040518060a0016040528060608152602001606081526020016060815260200160006001600160a01b03168152602001606081525090565b604080516001808252818301909252600091816020015b6040805180820190915260008082526020820152815260200190600190039081610bdf5790505090506040518060400160405280866001600160a01b031681526020018581525081600081518110610c3957610c39611abe565b60209081029190910101526040805160a081019091526001600160a01b03871660c08201528060e081016040516020818303038152906040528152602001604051806020016040528060008152508152602001828152602001846001600160a01b03168152602001610cf16040518060200160405280600081525060408051915160248084019190915281518084039091018152604490920190526020810180516001600160e01b03166397a657c960e01b17905290565b90529695505050505050565b6060610d2a7f00000000000000000000000000000000000000000000000000000000000000006000610fca565b905090565b6060610d2a7f00000000000000000000000000000000000000000000000000000000000000006001610fca565b600080610d6c8585856000610b8d565b6003546040516320487ded60e01b81529192506000916001600160a01b03909116906320487ded90610da4908a908690600401611994565b602060405180830381865afa158015610dc1573d6000803e3d6000fd5b505050506040513d601f19601f82011682018060405250810190610de59190611a69565b905047811115610e1157604051634787a10360e11b815247600482015260248101829052604401610235565b60035460405163095ea7b360e01b81526001600160a01b039182166004820152602481018690529086169063095ea7b3906044016020604051808303816000875af1158015610e64573d6000803e3d6000fd5b505050506040513d601f19601f82011682018060405250810190610e889190611972565b506003546040516396f4e9f960e01b81526001600160a01b03909116906396f4e9f9908390610ebd908b908790600401611994565b60206040518083038185885af1158015610edb573d6000803e3d6000fd5b50505050506040513d601f19601f82011682018060405250810190610f009190611a69565b604080516001600160a01b03808a1682528816602082015290810186905260006060820152608081018390529093506001600160401b0388169084907fc15fb748c32ba4eb29c1c311e78533f93b4425eab49ea87c6fe4279ecadca0439060a00160405180910390a35050949350505050565b6000610a7e610f80611075565b8360405161190160f01b8152600281019290925260228201526042902090565b600080600080610fb086866111a0565b925092509250610fc082826111ed565b5090949350505050565b606060ff8314610fe457610fdd836112aa565b9050610a7e565b818054610ff090611ad4565b80601f016020809104026020016040519081016040528092919081815260200182805461101c90611ad4565b80156110695780601f1061103e57610100808354040283529160200191611069565b820191906000526020600020905b81548152906001019060200180831161104c57829003601f168201915b50505050509050610a7e565b6000306001600160a01b037f0000000000000000000000000000000000000000000000000000000000000000161480156110ce57507f000000000000000000000000000000000000000000000000000000000000000046145b156110f857507f000000000000000000000000000000000000000000000000000000000000000090565b610d2a604080517f8b73c3c69bb8fe3d512ecc4cf759cc79239f7b179b0ffacaa9a75d522b39400f60208201527f0000000000000000000000000000000000000000000000000000000000000000918101919091527f000000000000000000000000000000000000000000000000000000000000000060608201524660808201523060a082015260009060c00160405160208183030381529060405280519060200120905090565b600080600083516041036111da5760208401516040850151606086015160001a6111cc888285856112e9565b9550955095505050506111e6565b50508151600091506002905b9250925092565b600082600381111561120157611201611b0e565b0361120a575050565b600182600381111561121e5761121e611b0e565b0361123c5760405163f645eedf60e01b815260040160405180910390fd5b600282600381111561125057611250611b0e565b036112715760405163fce698f760e01b815260048101829052602401610235565b600382600381111561128557611285611b0e565b036112a6576040516335e2f38360e21b815260048101829052602401610235565b5050565b606060006112b7836113b8565b604080516020808252818301909252919250600091906020820181803683375050509182525060208101929092525090565b600080807f7fffffffffffffffffffffffffffffff5d576e7357a4501ddfe92f46681b20a084111561132457506000915060039050826113ae565b604080516000808252602082018084528a905260ff891692820192909252606081018790526080810186905260019060a0016020604051602081039080840390855afa158015611378573d6000803e3d6000fd5b5050604051601f1901519150506001600160a01b0381166113a4575060009250600191508290506113ae565b9250600091508190505b9450945094915050565b600060ff8216601f811115610a7e57604051632cd44ac360e21b815260040160405180910390fd5b634e487b7160e01b600052604160045260246000fd5b60405160e081016001600160401b0381118282101715611418576114186113e0565b60405290565b600082601f83011261142f57600080fd5b8135602083016000806001600160401b0384111561144f5761144f6113e0565b50604051601f19601f85018116603f011681018181106001600160401b038211171561147d5761147d6113e0565b60405283815290508082840187101561149557600080fd5b838360208301376000602085830101528094505050505092915050565b80356001600160a01b03811681146114c957600080fd5b919050565b600060e082840312156114e057600080fd5b6114e86113f6565b90506114f3826114b2565b8152611501602083016114b2565b60208201526040828101359082015261151c606083016114b2565b606082015260808201356001600160401b0381111561153a57600080fd5b6115468482850161141e565b60808301525060a0828101359082015260c09182013591810191909152919050565b600080600080600080600060e0888a03121561158357600080fd5b87356001600160401b0381111561159957600080fd5b6115a58a828b0161141e565b97505060208801356001600160401b038111156115c157600080fd5b6115cd8a828b0161141e565b9650506040880135945060608801356001600160401b038111156115f057600080fd5b6115fc8a828b016114ce565b945050608088013560ff8116811461161357600080fd5b9699959850939692959460a0840135945060c09093013592915050565b60008060006060848603121561164557600080fd5b83356001600160401b0381111561165b57600080fd5b6116678682870161141e565b93505060208401356001600160401b0381111561168357600080fd5b61168f8682870161141e565b92505060408401356001600160401b038111156116ab57600080fd5b6116b7868287016114ce565b9150509250925092565b80356001600160401b03811681146114c957600080fd5b600080600080608085870312156116ee57600080fd5b6116f7856116c1565b9350611705602086016114b2565b9250611713604086016114b2565b9396929550929360600135925050565b6000815180845260005b818110156117495760208185018101518683018201520161172d565b506000602082860101526020601f19601f83011685010191505092915050565b60ff60f81b8816815260e06020820152600061178860e0830189611723565b828103604084015261179a8189611723565b606084018890526001600160a01b038716608085015260a0840186905283810360c08501528451808252602080870193509091019060005b818110156117f05783518352602093840193909201916001016117d2565b50909b9a5050505050505050505050565b6000806040838503121561181457600080fd5b61181d836116c1565b946020939093013593505050565b60006020828403121561183d57600080fd5b611846826114b2565b9392505050565b60006020828403121561185f57600080fd5b5035919050565b6020808252601d908201527f416d6f756e74206d7573742062652067726561746572207468616e2030000000604082015260600190565b60208082526018908201527f496e76616c696420726563656976657220616464726573730000000000000000604082015260600190565b602080825260169082015275496e76616c69642073656e646572206164647265737360501b604082015260600190565b6020808252601b908201527f496e76616c6964207369676e6174757265206f662073656e6465720000000000604082015260600190565b6020808252601d908201527f496e76616c6964207369676e6174757265206f66207265636569766572000000604082015260600190565b60006020828403121561198457600080fd5b8151801515811461184657600080fd5b6001600160401b0383168152604060208201526000825160a060408401526119bf60e0840182611723565b90506020840151603f198483030160608501526119dc8282611723565b6040860151858203603f19016080870152805180835260209182019450600093509101905b80831015611a3857835180516001600160a01b03168352602090810151818401529093019260019290920191604090910190611a01565b5060608601516001600160a01b031660a08601526080860151858203603f190160c087015292506106598184611723565b600060208284031215611a7b57600080fd5b5051919050565b9687526001600160a01b0395861660208801529390941660408601526060850191909152608084015260a083019190915260c082015260e00190565b634e487b7160e01b600052603260045260246000fd5b600181811c90821680611ae857607f821691505b602082108103611b0857634e487b7160e01b600052602260045260246000fd5b50919050565b634e487b7160e01b600052602160045260246000fdfea26469706673582212201ca07a03fc244fbd8d9cfaca2ded9ba0dcfe6068453774d23b039bbea758110164736f6c634300081a0033",
    "linkReferences": {}
  },
  "methodIdentifiers": {
    "chainIdTochainSelectorMapping(uint256)": "f4c5f43e",
    "eip712Domain()": "84b0196e",
    "getEstimatedFees(uint64,address,address,uint256)": "71a344af",
    "owner()": "8da5cb5b",
    "renounceOwnership()": "715018a6",
    "setChainSelector(uint64,uint256)": "8a174449",
    "transferFromWithPermit(bytes,bytes,uint256,(address,address,uint256,address,string,uint256,uint256),uint8,bytes32,bytes32)": "5a2d55a1",
    "transferNative(bytes,bytes,(address,address,uint256,address,string,uint256,uint256))": "62e10d6b",
    "transferOwnership(address)": "f2fde38b",
    "transferTokens(bytes,bytes,(address,address,uint256,address,string,uint256,uint256))": "e2fa2b6f"
  },
  "id": 35
}